:060000000A128A11FC2F18
:100E6200700883160313930028308312031394002F
:100E720008008316031391161116111A412F422FDF
:100E82003E2F08008316031311151119492F4A2FFB
:100E9200462F831203138C110800831603131114B7
:100EA2001118542F552F512F831203138C11080040
:100EB200831603139115141C5F2F602F5C2F83126E
:100EC20003131308F00070080800F0007008831282
:100ED200031393008C1D6E2F6F2F6B2F8C118316B3
:100EE2000313111F752F762F7B2F0A128A114327A6
:100EF2000A128A1108008316031387150716313068
:100F0200F0000030F1000A128A1131270A128A1108
:100F12003330F5000A128A114E270A128A11A030C4
:100F22000A128A1166270A128A1100300A128A11DD
:100F320066270A128A1101300A128A1166270A12DA
:100F42008A1175080A128A1166270A128A110A1270
:100F52008A1143270A128A114130F300EE30F2005F
:100F6200F20BB12FF30BB12F00000A128A114E2798
:100F72000A128A11A0300A128A1166270A128A11ED
:100F820000300A128A1166270A128A1101300A12E7
:100F92008A1166270A128A110A128A114E270A1228
:100FA2008A11A1300A128A1166270A128A110A12BC
:100FB2008A1159270A128A110A128A113A270A1229
:100FC2008A110A128A1143270A128A110130FF007C
:100FD2007F08F5071A30F4005E30F3006E30F2003D
:100FE200F20BF12FF30BF12FF40BF12F00008B2FEB
:0E0FF2000A128A11002883010A128A117C2F2C
:02400E00BA3FB7
:00000001FF
