:060000000A128A11FC2F18
:100F60007008831603139300283083120313940030
:100F70000800F00070088312031393008C1DC12F2A
:100F8000C22FBE2F8C1108008316031311141118E1
:100F9000CA2FCB2FC72F831203138C1108008B1776
:100FA0000B17831203138C11831603138711071277
:100FB0003130F0000030F1000A128A11B0270A1215
:100FC0008A110A128A11C4270A128A115A300A1287
:100FD0008A11B9270A128A11831603130716823061
:100FE000F300DD30F200F20BF32FF30BF32FF82FA9
:100FF000E12F0A128A11002883010A128A11CF2FC9
:02400E00BA3FB7
:00000001FF
