:060000000A128A11FC2F18
:100F88007008831603139300283083120313940008
:100F980008008316031311141118D32FD42FD02F40
:100FA800831203138C1108008B170B17831203137A
:100FB8008C1183160313871107123130F0000030AB
:100FC800F1000A128A11C4270A128A110A128A1118
:100FD800CD270A128A118230F300DD30F200F20BBD
:100FE800F32FF30BF32FF82FEA2F0A128A11002898
:080FF80083010A128A11D82FAF
:02400E00BA3FB7
:00000001FF
