:060000000A128A11FC2F18
:100F3200700883160313930028308312031394005E
:100F420008008316031311151119A82FA92FA52F15
:100F5200831203138C110800831603131114111842
:100F6200B32FB42FB02F831203138C110800F0009B
:100F720070088312031393008C1DC02FC12FBD2F45
:100F82008C1183160313111FC72FC82FCD2F0A12DE
:100F92008A11A2270A128A110800831603138715E1
:100FA20007163130F0000030F1000A128A11992739
:100FB2000A128A110A128A11AD270A128A11A03066
:100FC2000A128A11B8270A128A110A128A11A22752
:100FD2000A128A111A30F4005E30F3006E30F20009
:100FE200F20BF12FF30BF12FF40BF12F0000DB2F9B
:0E0FF2000A128A11002883010A128A11CE2FDA
:02400E00BA3FB7
:00000001FF
