:060000000A128A11FC2F18
:100E3A007008831603139300283083120313940057
:100E4A0008008316031391161116111A2D2F2E2F2F
:100E5A002A2F0800831603139115141C352F362FD9
:100E6A00322F8312031313080800831603139114F5
:100E7A009118402F412F3D2F831203138C11080024
:100E8A0083160313111511194B2F4C2F482F831258
:100E9A0003138C1108008316031311141118562F0B
:100EAA00572F532F831203138C110800F000700878
:100EBA008312031393008C1D632F642F602F8C11F0
:100ECA0083160313111F6A2F6B2F702F0A128A11B0
:100EDA0045270A128A110800831603138715071675
:100EEA003130F0000030F1000A128A111D270A126F
:100EFA008A11A030F700A130F5001130F800F9018D
:100F0A00F90AF6010A128A1150270A128A11770879
:100F1A000A128A115B270A128A1178080A128A11A0
:100F2A005B270A128A1179080A128A115B270A12A8
:100F3A008A1176080A128A115B270A128A110A1282
:100F4A008A1145270A128A111A30F4005E30F3001A
:100F5A006E30F200F20BAF2FF30BAF2FF40BAF2F63
:100F6A0000000A128A1150270A128A1177080A12F7
:100F7A008A115B270A128A1178080A128A115B27DA
:100F8A000A128A1179080A128A115B270A128A112F
:100F9A000A128A113A270A128A1175080A128A1144
:100FAA005B270A128A110A128A112F270A128A113A
:100FBA000A128A1126270A128A110A128A11452749
:100FCA000A128A110130FF007F08F6071A30F4006E
:100FDA005E30F3006E30F200F20BF12FF30BF12FBB
:100FEA00F40BF12F0000872F0A128A1100288301BF
:060FFA000A128A11712F9A
:02400E00BA3FB7
:00000001FF
