:100000000A128A11FC2F00308A000408840A820731
:10001000003452346534633465346934763465347D
:100020003A3420340034533465346E3464343A3412
:040030002034003444
:1009D60070088316031393002830831203139400C0
:1009E60008008316031391161116111AFB2CFC2C02
:1009F600F82C0800831603139115141C032D042DDF
:100A0600002D831203131308080083160313911491
:100A160091180E2D0F2D0B2D831203138C11080028
:100A26008316031311151119192D1A2D162D83125C
:100A360003138C1108008316031311141118242DA7
:100A4600252D212D831203138C110800F200831229
:100A56000313861686110612720888002130F100EB
:100A66007630F000F00B352DF10B352D000083129A
:100A7600031386120800F2008312031386168615E6
:100A86000612720888002130F1007630F000F00B73
:100A96004A2DF10B4A2D000083120313861208001B
:100AA600F00070088312031393008C1D5B2D5C2DE0
:100AB600582D8C1183160313111F622D632D682D7B
:100AC6000A128A1113250A128A11080038300A12EE
:100AD6008A1129250A128A1106300A128A11292535
:100AE6000A128A110C300A128A1129250A128A1151
:100AF60001300A128A1129250A128A110800F40007
:100B0600F501962D7508740784000A128A110320D0
:100B16000A128A110A128A113E250A128A11013016
:100B2600FF007F08F50773087502031C9B2D9C2D9B
:100B3600852D0800FD01FB1FA12DA22DA92DFA0967
:100B4600FB09FA0A0319FB0AFD01FD0AF91FAC2D80
:100B5600AD2DB22DF809F909F80A0319F90A780832
:100B660079040319B72DB82DE72DFC01FC0AC62D13
:100B760001300310F80DF90DFF3E031DBC2D0130A9
:100B8600FF007F08FC07F91FC92DCA2DBB2D790868
:100B96007B02031DD02D78087A02031CD32DD42D99
:100BA600DA2D7808FA027908031CFB03FB020130F0
:100BB6000310F90CF80CFF3E031DDB2D0130FC027F
:100BC600031DE62DE72DCA2D7D080319EB2DEC2D0F
:100BD600F12DFA09FB09FA0A0319FB0A7B08F90049
:100BE6007A08F8000800F501F11FFA2DFB2D022EF8
:100BF600F009F109F00A0319F10AF501F50AF31FE4
:100C0600052E062E0F2EF209F309F20A0319F30A2E
:100C16000130FF007F08F506F601F7017008710440
:100C26000319162E172E4E2EF401F40A252E013026
:100C36000310F00DF10DFF3E031D1B2E0130FF00CA
:100C46007F08F407F11F282E292E1A2E01300310D3
:100C5600F60DF70DFF3E031D2A2E71087302031DC4
:100C6600362E70087202031C392E3A2E412E700859
:100C7600F2027108031CF303F30276140130031029
:100C8600F10CF00CFF3E031D422E0130F402031D51
:100C96004D2E4E2E292E75080319522E532E582EE0
:100CA600F609F709F60A0319F70A7708F100760834
:100CB600F0000800831603138611061286128801B7
:100CC600871507160A128A1169250A128A118030B9
:100CD6000A128A1129250A128A110630F3000B30EE
:100CE6000A128A1182250A128A11C0300A128A1142
:100CF60029250A128A110930F30001300A128A11D5
:100D060082250A128A113130F0000030F1000A12F1
:100D16008A11EB240A128A11A03083120313A4004D
:100D2600A130A3001130A500A601A60AA8010A1247
:100D36008A111E250A128A118312031324080A1225
:100D46008A1153250A128A118312031325080A12DF
:100D56008A1153250A128A118312031326080A12CE
:100D66008A1153250A128A118312031328080A12BC
:100D76008A1153250A128A110A128A1113250A1298
:100D86008A1186300A128A1129250A128A116430BC
:100D9600831203132802031CD12ED22EE92E6430AF
:100DA600F0000030F1002808A000A1012008F200A0
:100DB6002108F3000A128A11F6250A128A11700810
:100DC600303E0A128A113E250A128A110A3083120F
:100DD60003132802031CF02EF12E152F0A30F800FB
:100DE6000030F9000A30F0000030F1002808A000B9
:100DF600A1012008F2002108F3000A128A11F62543
:100E06000A128A117108FB007008FA000A128A1188
:100E16009D250A128A117808303E0A128A113E254B
:100E26000A128A110A30F8000030F90083120313FF
:100E36002808A000A1012008FA002108FB000A12D8
:100E46008A119D250A128A117808303E0A128A11E3
:100E56003E250A128A111A3083120313A2005E304D
:100E6600A1006D30A000A00B362FA10B362FA20BD0
:100E7600362F3D2F0A128A111E250A128A11831255
:100E8600031324080A128A1153250A128A1183129F
:100E9600031325080A128A1153250A128A1183128E
:100EA600031326080A128A1153250A128A110A12F6
:100EB6008A1108250A128A118312031323080A12BB
:100EC6008A1153250A128A110A128A11FD240A125E
:100ED6008A1183120313A7000A128A11F4240A1234
:100EE6008A110A128A1113250A128A11C9300A12A6
:100EF6008A1129250A128A116430831203132702E4
:100F0600031C862F872F9E2F6430F0000030F100DF
:100F16002708A000A1012008F2002108F3000A1208
:100F26008A11F6250A128A117008303E0A128A11B1
:100F36003E250A128A110A30831203132702031C64
:100F4600A52FA62FCA2F0A30F8000030F9000A3064
:100F5600F0000030F1002708A000A1012008F200EF
:100F66002108F3000A128A11F6250A128A1171085D
:100F7600FB007008FA000A128A119D250A128A11CE
:100F86007808303E0A128A113E250A128A110A3062
:100F9600F8000030F900831203132708A000A1010E
:100FA6002008FA002108FB000A128A119D250A1260
:100FB6008A117808303E0A128A113E250A128A11D1
:100FC6000130FF007F0883120313A8071A3083122B
:100FD6000313A2005E30A1006D30A000A00BF12F1C
:100FE600A10BF12FA20BF12FF82F9A2E0A128A11BC
:0A0FF600002883010A128A115D2E03
:02400E00BA3FB7
:00000001FF
